{
  "_format": "hh-sol-artifact-1",
  "contractName": "Lottery",
  "sourceName": "contracts/Lottery.sol",
  "abi": [
    {
      "inputs": [
        {
          "internalType": "address",
          "name": "tokenAddress",
          "type": "address"
        },
        {
          "internalType": "uint256",
          "name": "_purchaseRatio",
          "type": "uint256"
        },
        {
          "internalType": "uint256",
          "name": "_betPrice",
          "type": "uint256"
        },
        {
          "internalType": "uint256",
          "name": "_betFee",
          "type": "uint256"
        }
      ],
      "stateMutability": "nonpayable",
      "type": "constructor"
    },
    {
      "anonymous": false,
      "inputs": [
        {
          "indexed": true,
          "internalType": "address",
          "name": "previousOwner",
          "type": "address"
        },
        {
          "indexed": true,
          "internalType": "address",
          "name": "newOwner",
          "type": "address"
        }
      ],
      "name": "OwnershipTransferred",
      "type": "event"
    },
    {
      "inputs": [],
      "name": "bet",
      "outputs": [],
      "stateMutability": "nonpayable",
      "type": "function"
    },
    {
      "inputs": [],
      "name": "betFee",
      "outputs": [
        {
          "internalType": "uint256",
          "name": "",
          "type": "uint256"
        }
      ],
      "stateMutability": "view",
      "type": "function"
    },
    {
      "inputs": [
        {
          "internalType": "uint256",
          "name": "times",
          "type": "uint256"
        }
      ],
      "name": "betMany",
      "outputs": [],
      "stateMutability": "nonpayable",
      "type": "function"
    },
    {
      "inputs": [],
      "name": "betPrice",
      "outputs": [
        {
          "internalType": "uint256",
          "name": "",
          "type": "uint256"
        }
      ],
      "stateMutability": "view",
      "type": "function"
    },
    {
      "inputs": [],
      "name": "betsClosingTime",
      "outputs": [
        {
          "internalType": "uint256",
          "name": "",
          "type": "uint256"
        }
      ],
      "stateMutability": "view",
      "type": "function"
    },
    {
      "inputs": [],
      "name": "betsOpen",
      "outputs": [
        {
          "internalType": "bool",
          "name": "",
          "type": "bool"
        }
      ],
      "stateMutability": "view",
      "type": "function"
    },
    {
      "inputs": [],
      "name": "closeLottery",
      "outputs": [],
      "stateMutability": "nonpayable",
      "type": "function"
    },
    {
      "inputs": [],
      "name": "getRandomNumber",
      "outputs": [
        {
          "internalType": "uint256",
          "name": "randomNumber",
          "type": "uint256"
        }
      ],
      "stateMutability": "view",
      "type": "function"
    },
    {
      "inputs": [
        {
          "internalType": "uint256",
          "name": "closingTime",
          "type": "uint256"
        }
      ],
      "name": "openBets",
      "outputs": [],
      "stateMutability": "nonpayable",
      "type": "function"
    },
    {
      "inputs": [],
      "name": "owner",
      "outputs": [
        {
          "internalType": "address",
          "name": "",
          "type": "address"
        }
      ],
      "stateMutability": "view",
      "type": "function"
    },
    {
      "inputs": [],
      "name": "ownerPool",
      "outputs": [
        {
          "internalType": "uint256",
          "name": "",
          "type": "uint256"
        }
      ],
      "stateMutability": "view",
      "type": "function"
    },
    {
      "inputs": [
        {
          "internalType": "uint256",
          "name": "amount",
          "type": "uint256"
        }
      ],
      "name": "ownerWithdraw",
      "outputs": [],
      "stateMutability": "nonpayable",
      "type": "function"
    },
    {
      "inputs": [],
      "name": "paymentToken",
      "outputs": [
        {
          "internalType": "contract LotteryToken",
          "name": "",
          "type": "address"
        }
      ],
      "stateMutability": "view",
      "type": "function"
    },
    {
      "inputs": [
        {
          "internalType": "address",
          "name": "",
          "type": "address"
        }
      ],
      "name": "prize",
      "outputs": [
        {
          "internalType": "uint256",
          "name": "",
          "type": "uint256"
        }
      ],
      "stateMutability": "view",
      "type": "function"
    },
    {
      "inputs": [],
      "name": "prizePool",
      "outputs": [
        {
          "internalType": "uint256",
          "name": "",
          "type": "uint256"
        }
      ],
      "stateMutability": "view",
      "type": "function"
    },
    {
      "inputs": [
        {
          "internalType": "uint256",
          "name": "amount",
          "type": "uint256"
        }
      ],
      "name": "prizeWithdraw",
      "outputs": [],
      "stateMutability": "nonpayable",
      "type": "function"
    },
    {
      "inputs": [],
      "name": "purchaseRatio",
      "outputs": [
        {
          "internalType": "uint256",
          "name": "",
          "type": "uint256"
        }
      ],
      "stateMutability": "view",
      "type": "function"
    },
    {
      "inputs": [],
      "name": "purchaseTokens",
      "outputs": [],
      "stateMutability": "payable",
      "type": "function"
    },
    {
      "inputs": [],
      "name": "renounceOwnership",
      "outputs": [],
      "stateMutability": "nonpayable",
      "type": "function"
    },
    {
      "inputs": [
        {
          "internalType": "uint256",
          "name": "amount",
          "type": "uint256"
        }
      ],
      "name": "returnTokens",
      "outputs": [],
      "stateMutability": "nonpayable",
      "type": "function"
    },
    {
      "inputs": [
        {
          "internalType": "address",
          "name": "newOwner",
          "type": "address"
        }
      ],
      "name": "transferOwnership",
      "outputs": [],
      "stateMutability": "nonpayable",
      "type": "function"
    }
  ],
  "bytecode": "0x60806040523480156200001157600080fd5b5060405162001ad538038062001ad5833981810160405281019062000037919062000228565b620000576200004b620000b760201b60201c565b620000bf60201b60201c565b83600160006101000a81548173ffffffffffffffffffffffffffffffffffffffff021916908373ffffffffffffffffffffffffffffffffffffffff160217905550826002819055508160038190555080600481905550505050506200029a565b600033905090565b60008060009054906101000a900473ffffffffffffffffffffffffffffffffffffffff169050816000806101000a81548173ffffffffffffffffffffffffffffffffffffffff021916908373ffffffffffffffffffffffffffffffffffffffff1602179055508173ffffffffffffffffffffffffffffffffffffffff168173ffffffffffffffffffffffffffffffffffffffff167f8be0079c531659141344cd1fd0a4f28419497f9722a3daafe3b4186f6b6457e060405160405180910390a35050565b600080fd5b600073ffffffffffffffffffffffffffffffffffffffff82169050919050565b6000620001b58262000188565b9050919050565b620001c781620001a8565b8114620001d357600080fd5b50565b600081519050620001e781620001bc565b92915050565b6000819050919050565b6200020281620001ed565b81146200020e57600080fd5b50565b6000815190506200022281620001f7565b92915050565b6000806000806080858703121562000245576200024462000183565b5b60006200025587828801620001d6565b9450506020620002688782880162000211565b93505060406200027b8782880162000211565b92505060606200028e8782880162000211565b91505092959194509250565b61182b80620002aa6000396000f3fe60806040526004361061012a5760003560e01c8063719ce73e116100ab57806395cadc471161006f57806395cadc4714610361578063990a49f51461038c578063cfd8a175146103b5578063d1b258ff146103e0578063dbdff2c11461040b578063f2fde38b146104365761012a565b8063719ce73e1461027a578063729e91e9146102a5578063841e6ce9146102ce5780638adf9c1f146102f95780638da5cb5b146103365761012a565b806333f707d1116100f257806333f707d1146101d15780633ae1786f146101fa5780633cc121e6146102235780636fd098161461024c578063715018a6146102635761012a565b806311610c251461012f57806318c34965146101465780632b65e040146101715780633013ce291461019c5780633290ce29146101c7575b600080fd5b34801561013b57600080fd5b5061014461045f565b005b34801561015257600080fd5b5061015b610608565b6040516101689190610f73565b60405180910390f35b34801561017d57600080fd5b5061018661060e565b6040516101939190610f73565b60405180910390f35b3480156101a857600080fd5b506101b1610614565b6040516101be919061100d565b60405180910390f35b6101cf61063a565b005b3480156101dd57600080fd5b506101f860048036038101906101f39190611059565b6106d8565b005b34801561020657600080fd5b50610221600480360381019061021c9190611059565b6107e2565b005b34801561022f57600080fd5b5061024a60048036038101906102459190611059565b6108c8565b005b34801561025857600080fd5b50610261610a44565b005b34801561026f57600080fd5b50610278610bd3565b005b34801561028657600080fd5b5061028f610be7565b60405161029c9190610f73565b60405180910390f35b3480156102b157600080fd5b506102cc60048036038101906102c79190611059565b610bed565b005b3480156102da57600080fd5b506102e3610c22565b6040516102f09190610f73565b60405180910390f35b34801561030557600080fd5b50610320600480360381019061031b91906110c4565b610c28565b60405161032d9190610f73565b60405180910390f35b34801561034257600080fd5b5061034b610c40565b6040516103589190611100565b60405180910390f35b34801561036d57600080fd5b50610376610c69565b6040516103839190610f73565b60405180910390f35b34801561039857600080fd5b506103b360048036038101906103ae9190611059565b610c6f565b005b3480156103c157600080fd5b506103ca610d2e565b6040516103d79190610f73565b60405180910390f35b3480156103ec57600080fd5b506103f5610d34565b6040516104029190611136565b60405180910390f35b34801561041757600080fd5b50610420610d47565b60405161042d9190610f73565b60405180910390f35b34801561044257600080fd5b5061045d600480360381019061045891906110c4565b610d4f565b005b600760009054906101000a900460ff16801561047c575060085442105b6104bb576040517f08c379a00000000000000000000000000000000000000000000000000000000081526004016104b2906111ae565b60405180910390fd5b600454600660008282546104cf91906111fd565b92505081905550600354600560008282546104ea91906111fd565b92505081905550600a339080600181540180825580915050600190039060005260206000200160009091909190916101000a81548173ffffffffffffffffffffffffffffffffffffffff021916908373ffffffffffffffffffffffffffffffffffffffff160217905550600160009054906101000a900473ffffffffffffffffffffffffffffffffffffffff1673ffffffffffffffffffffffffffffffffffffffff166323b872dd33306004546003546105a491906111fd565b6040518463ffffffff1660e01b81526004016105c293929190611231565b6020604051808303816000875af11580156105e1573d6000803e3d6000fd5b505050506040513d601f19601f820116820180604052508101906106059190611294565b50565b60085481565b60065481565b600160009054906101000a900473ffffffffffffffffffffffffffffffffffffffff1681565b600160009054906101000a900473ffffffffffffffffffffffffffffffffffffffff1673ffffffffffffffffffffffffffffffffffffffff166340c10f19336002543461068791906112c1565b6040518363ffffffff1660e01b81526004016106a4929190611303565b600060405180830381600087803b1580156106be57600080fd5b505af11580156106d2573d6000803e3d6000fd5b50505050565b6106e0610dd2565b600654811115610725576040517f08c379a000000000000000000000000000000000000000000000000000000000815260040161071c90611378565b60405180910390fd5b80600660008282546107379190611398565b92505081905550600160009054906101000a900473ffffffffffffffffffffffffffffffffffffffff1673ffffffffffffffffffffffffffffffffffffffff1663a9059cbb33836040518363ffffffff1660e01b815260040161079b929190611303565b6020604051808303816000875af11580156107ba573d6000803e3d6000fd5b505050506040513d601f19601f820116820180604052508101906107de9190611294565b5050565b600160009054906101000a900473ffffffffffffffffffffffffffffffffffffffff1673ffffffffffffffffffffffffffffffffffffffff166379cc679033836040518363ffffffff1660e01b815260040161083f929190611303565b600060405180830381600087803b15801561085957600080fd5b505af115801561086d573d6000803e3d6000fd5b505050503373ffffffffffffffffffffffffffffffffffffffff166108fc6002548361089991906113fb565b9081150290604051600060405180830381858888f193505050501580156108c4573d6000803e3d6000fd5b5050565b600960003373ffffffffffffffffffffffffffffffffffffffff1673ffffffffffffffffffffffffffffffffffffffff1681526020019081526020016000205481111561094a576040517f08c379a000000000000000000000000000000000000000000000000000000000815260040161094190611478565b60405180910390fd5b80600960003373ffffffffffffffffffffffffffffffffffffffff1673ffffffffffffffffffffffffffffffffffffffff16815260200190815260200160002060008282546109999190611398565b92505081905550600160009054906101000a900473ffffffffffffffffffffffffffffffffffffffff1673ffffffffffffffffffffffffffffffffffffffff1663a9059cbb33836040518363ffffffff1660e01b81526004016109fd929190611303565b6020604051808303816000875af1158015610a1c573d6000803e3d6000fd5b505050506040513d601f19601f82011682018060405250810190610a409190611294565b5050565b600854421015610a89576040517f08c379a0000000000000000000000000000000000000000000000000000000008152600401610a80906114e4565b60405180910390fd5b600760009054906101000a900460ff16610ad8576040517f08c379a0000000000000000000000000000000000000000000000000000000008152600401610acf90611550565b60405180910390fd5b6000600a805490501115610bb6576000600a80549050610af6610d47565b610b009190611570565b90506000600a8281548110610b1857610b176115a1565b5b9060005260206000200160009054906101000a900473ffffffffffffffffffffffffffffffffffffffff169050600554600960008373ffffffffffffffffffffffffffffffffffffffff1673ffffffffffffffffffffffffffffffffffffffff1681526020019081526020016000206000828254610b9691906111fd565b925050819055506000600581905550600a6000610bb39190610f1c565b50505b6000600760006101000a81548160ff021916908315150217905550565b610bdb610dd2565b610be56000610e50565b565b60055481565b60008111610bfa57600080fd5b5b6000811115610c1f57610c0c61045f565b8080610c17906115d0565b915050610bfb565b50565b60045481565b60096020528060005260406000206000915090505481565b60008060009054906101000a900473ffffffffffffffffffffffffffffffffffffffff16905090565b60025481565b610c77610dd2565b600760009054906101000a900460ff1615610cc7576040517f08c379a0000000000000000000000000000000000000000000000000000000008152600401610cbe90611645565b60405180910390fd5b428111610d09576040517f08c379a0000000000000000000000000000000000000000000000000000000008152600401610d00906116d7565b60405180910390fd5b806008819055506001600760006101000a81548160ff02191690831515021790555050565b60035481565b600760009054906101000a900460ff1681565b600044905090565b610d57610dd2565b600073ffffffffffffffffffffffffffffffffffffffff168173ffffffffffffffffffffffffffffffffffffffff1603610dc6576040517f08c379a0000000000000000000000000000000000000000000000000000000008152600401610dbd90611769565b60405180910390fd5b610dcf81610e50565b50565b610dda610f14565b73ffffffffffffffffffffffffffffffffffffffff16610df8610c40565b73ffffffffffffffffffffffffffffffffffffffff1614610e4e576040517f08c379a0000000000000000000000000000000000000000000000000000000008152600401610e45906117d5565b60405180910390fd5b565b60008060009054906101000a900473ffffffffffffffffffffffffffffffffffffffff169050816000806101000a81548173ffffffffffffffffffffffffffffffffffffffff021916908373ffffffffffffffffffffffffffffffffffffffff1602179055508173ffffffffffffffffffffffffffffffffffffffff168173ffffffffffffffffffffffffffffffffffffffff167f8be0079c531659141344cd1fd0a4f28419497f9722a3daafe3b4186f6b6457e060405160405180910390a35050565b600033905090565b5080546000825590600052602060002090810190610f3a9190610f3d565b50565b5b80821115610f56576000816000905550600101610f3e565b5090565b6000819050919050565b610f6d81610f5a565b82525050565b6000602082019050610f886000830184610f64565b92915050565b600073ffffffffffffffffffffffffffffffffffffffff82169050919050565b6000819050919050565b6000610fd3610fce610fc984610f8e565b610fae565b610f8e565b9050919050565b6000610fe582610fb8565b9050919050565b6000610ff782610fda565b9050919050565b61100781610fec565b82525050565b60006020820190506110226000830184610ffe565b92915050565b600080fd5b61103681610f5a565b811461104157600080fd5b50565b6000813590506110538161102d565b92915050565b60006020828403121561106f5761106e611028565b5b600061107d84828501611044565b91505092915050565b600061109182610f8e565b9050919050565b6110a181611086565b81146110ac57600080fd5b50565b6000813590506110be81611098565b92915050565b6000602082840312156110da576110d9611028565b5b60006110e8848285016110af565b91505092915050565b6110fa81611086565b82525050565b600060208201905061111560008301846110f1565b92915050565b60008115159050919050565b6111308161111b565b82525050565b600060208201905061114b6000830184611127565b92915050565b600082825260208201905092915050565b7f4c6f747465727920697320636c6f736564000000000000000000000000000000600082015250565b6000611198601183611151565b91506111a382611162565b602082019050919050565b600060208201905081810360008301526111c78161118b565b9050919050565b7f4e487b7100000000000000000000000000000000000000000000000000000000600052601160045260246000fd5b600061120882610f5a565b915061121383610f5a565b925082820190508082111561122b5761122a6111ce565b5b92915050565b600060608201905061124660008301866110f1565b61125360208301856110f1565b6112606040830184610f64565b949350505050565b6112718161111b565b811461127c57600080fd5b50565b60008151905061128e81611268565b92915050565b6000602082840312156112aa576112a9611028565b5b60006112b88482850161127f565b91505092915050565b60006112cc82610f5a565b91506112d783610f5a565b92508282026112e581610f5a565b915082820484148315176112fc576112fb6111ce565b5b5092915050565b600060408201905061131860008301856110f1565b6113256020830184610f64565b9392505050565b7f4e6f7420656e6f756768206665657320636f6c6c656374656400000000000000600082015250565b6000611362601983611151565b915061136d8261132c565b602082019050919050565b6000602082019050818103600083015261139181611355565b9050919050565b60006113a382610f5a565b91506113ae83610f5a565b92508282039050818111156113c6576113c56111ce565b5b92915050565b7f4e487b7100000000000000000000000000000000000000000000000000000000600052601260045260246000fd5b600061140682610f5a565b915061141183610f5a565b925082611421576114206113cc565b5b828204905092915050565b7f4e6f7420656e6f756768207072697a6500000000000000000000000000000000600082015250565b6000611462601083611151565b915061146d8261142c565b602082019050919050565b6000602082019050818103600083015261149181611455565b9050919050565b7f546f6f20736f6f6e20746f20636c6f7365000000000000000000000000000000600082015250565b60006114ce601183611151565b91506114d982611498565b602082019050919050565b600060208201905081810360008301526114fd816114c1565b9050919050565b7f416c726561647920636c6f736564000000000000000000000000000000000000600082015250565b600061153a600e83611151565b915061154582611504565b602082019050919050565b600060208201905081810360008301526115698161152d565b9050919050565b600061157b82610f5a565b915061158683610f5a565b925082611596576115956113cc565b5b828206905092915050565b7f4e487b7100000000000000000000000000000000000000000000000000000000600052603260045260246000fd5b60006115db82610f5a565b9150600082036115ee576115ed6111ce565b5b600182039050919050565b7f4c6f7474657279206973206f70656e0000000000000000000000000000000000600082015250565b600061162f600f83611151565b915061163a826115f9565b602082019050919050565b6000602082019050818103600083015261165e81611622565b9050919050565b7f436c6f73696e672074696d65206d75737420626520696e20746865206675747560008201527f7265000000000000000000000000000000000000000000000000000000000000602082015250565b60006116c1602283611151565b91506116cc82611665565b604082019050919050565b600060208201905081810360008301526116f0816116b4565b9050919050565b7f4f776e61626c653a206e6577206f776e657220697320746865207a65726f206160008201527f6464726573730000000000000000000000000000000000000000000000000000602082015250565b6000611753602683611151565b915061175e826116f7565b604082019050919050565b6000602082019050818103600083015261178281611746565b9050919050565b7f4f776e61626c653a2063616c6c6572206973206e6f7420746865206f776e6572600082015250565b60006117bf602083611151565b91506117ca82611789565b602082019050919050565b600060208201905081810360008301526117ee816117b2565b905091905056fea2646970667358221220b13ed06fb010250848cb32946615acc8ed2e3f2c7bda878a9404e678866ea3a764736f6c63430008110033",
  "linkReferences": {},
  "deployedLinkReferences": {}
}